:020000040800F2
:10000000F8900020BD260008FD260008FF26000805
:10001000012700080327000805270008000000004A
:10002000000000000000000000000000072700089A
:1000300009270008000000000B2700080D27000812
:10004000D7260008D7260008D7260008D72600089C
:10005000D7260008D7260008D7260008D72600088C
:10006000D7260008D7260008D7260008D72600087C
:10007000D7260008D7260008D7260008D72600086C
:10008000D7260008D7260008D7260008D72600085C
:10009000D7260008D7260008D7260008D72600084C
:1000A000D7260008D7260008D7260008D72600083C
:1000B000D7260008D7260008D7260008D72600082C
:1000C000D7260008D7260008D7260008D72600081C
:1000D000D7260008D7260008D7260008D72600080C
:1000E000D7260008D7260008D7260008D7260008FC
:1000F000D7260008D7260008D7260008D7260008EC
:10010000D72600080F270008D7260008D7260008A2
:10011000D7260008D7260008D7260008D7260008CB
:10012000D7260008D7260008D7260008D7260008BB
:10013000D7260008D7260008D7260008D7260008AB
:10014000D7260008D7260008D7260008D72600089B
:10015000D7260008D7260008D7260008D72600088B
:10016000D7260008D7260008D7260008D72600087B
:10017000D7260008D7260008D7260008D72600086B
:10018000D7260008D726000800F002F800F0B2F8E1
:100190000AA090E8000C82448344AAF10107DA45E2
:1001A00001D100F0A7F8AFF2090EBAE80F0013F082
:1001B000010F18BFFB1A43F0010318478C400300DE
:1001C000AC4003000A444FF0000C10F8013B13F060
:1001D000070408BF10F8014B1D1108BF10F8015BA0
:1001E000641E05D010F8016B641E01F8016BF9D193
:1001F00013F0080F1EBF10F8014BAD1C0C1B09D1EA
:100200006D1E58BF01F801CBFAD505E014F8016B5B
:1002100001F8016B6D1EF9D59142D6D370470000ED
:100220000023002400250026103A28BF78C1FBD8FF
:10023000520728BF30C148BF0B6070476E2907F0D6
:10024000E383702907F03785662909F0F88065296E
:1002500009F0F580672909F0F280612909F0F18041
:1002600003681B0A28BF41F08001692907F040801C
:10027000642907F03D80752907F03A806F2907F05F
:10028000C484782907F00385E92907F05F84E4290D
:1002900007F05C84F52907F05984EF2907F0C18441
:1002A000F82907F002850368DB0928BF41F08001C7
:1002B000632908F08B81732908F09081E32908F005
:1002C0009B81F32908F0A081002070471FB509F039
:1002D000B1F808F0A9FB04000020002109F094F80F
:1002E000401C60600020002109F078F8E0601FBD2C
:1002F00010B510BD08F06AFB1146FFF7E7FF00F0EC
:1003000011F808F043FC03B4FFF7F2FF03BC00F060
:10031000A1F9000030BF72B6704762B6704780F333
:100320000888704700F0E6F84FF4E13000F09FF9DC
:1003300005E037A006F0BAFFC82000F006F900F08B
:1003400078FF0028F5D137A006F0B0FF01223AA1CE
:100350003A4805F04FF8132239A13F4805F075F8E7
:100360003D4805F007FB13223CA1414805F06DF81C
:100370003F4805F0FFFA13223EA1444805F065F816
:10038000424805F0F7FA132241A1464805F05DF80E
:10039000444805F0EFFA132243A14A4805F055F806
:1003A000484805F0E7FA484802220023D0E9124104
:1003B000204606F04AFF4549486027E0642000F0E7
:1003C000C4F80020424908601CE016224149404818
:1003D000006802F08DF83E4801683FA006F066FF15
:1003E0000A2000F0B2F8414AA2F5B061384800682E
:1003F00002F0ECF83E4806F04DFF35480068401C1E
:100400003349086032480068C828DED3D6E70000C8
:100410005344BFA8B3F5CABCBBAFB4EDCEF30D0ACD
:10042000000000005344BFA8B3F5CABCBBAFB3C9BA
:10043000B9A60D0A00000000303A00008008002034
:10044000303A2F6E717474446174615F66696C65D3
:100450002E74787400000000341A0020303A2F6E99
:100460007174744C656E5F66696C652E7478740087
:100470005C1C0020303A2F6E71747452657472796E
:100480005F66696C652E747874000000841E00201D
:10049000303A2F6E7174745374615F66696C652EA7
:1004A00074787400AC200020303A2F6E717474534D
:1004B000746172416464725F66696C652E747874ED
:1004C00000000000D422002028060020100F002089
:1004D0007805002000000020CBB3D0F2A3BA256439
:1004E0002020CAFDBEDDA3BA00000000281A0020AB
:1004F000A814002010B56FF0040002F067FA10BDD8
:100500000146C1EBC10202EB42024FF0E0235A6107
:1005100000229A611A46126942F001021A6100BF74
:100520004FF0E022106900F001021AB100F48032AD
:10053000002AF5D04FF0E022126922F001024FF0BC
:10054000E0231A6100229A61704710B50146B1F5A7
:100550002F7F26D2C1EBC10303EB43034FF47A7420
:1005600063434FF0E02463610023A36123461B69CA
:1005700043F00103236100BF4FF0E023186900F04E
:1005800001031BB100F48033002BF5D04FF0E023C2
:100590001B6923F001034FF0E02423610023A361D2
:1005A00054E0002220E02A4B4FF0E0246361002356
:1005B000A36123461B6943F00103236100BF4FF091
:1005C000E023186900F001031BB100F48033002B15
:1005D000F5D04FF0E0231B6923F001034FF0E02436
:1005E00023610023A361521C4FF42F73B1FBF3F37B
:1005F0009342D8D84FF42F73B1FBF3F403FB1413D9
:10060000C3EBC30303EB43034FF47A7463434FF02C
:10061000E02463610023A36123461B6943F00103C7
:10062000236100BF4FF0E023186900F001031BB104
:1006300000F48033002BF5D04FF0E0231B6923F04A
:1006400001034FF0E02423610023A36110BD0000EB
:10065000E04DE00000BF704700BF304A128802F052
:100660004002002AF9D0C2B22C4B9A80704710B5D4
:1006700088B004460121084602F0EAFC012110205E
:1006800002F040FD07220921254802F0CEFA072298
:100690000A21234802F0C9FA4FF4C06006900220F4
:1006A0008DF81C008DF81D0000208DF81E00012023
:1006B0008DF81F0006A91A4802F02CFA02940020B7
:1006C000ADF80C00ADF80E00ADF81000ADF8140058
:1006D0000C20ADF8120002A9104802F074FE0121AE
:1006E0000E4802F0F8FE40210C4802F0DCFF012227
:1006F00040F22551094802F0A4FF25208DF804009E
:1007000003208DF805008DF8060001208DF8070004
:1007100001A802F00EF908B010BD00000010014061
:100720000000024001460020012900D011B9FE4B13
:10073000197000E0262070470146FC4A106820F03E
:10074000FF0008431060704770B5044606E0F748A4
:100750003030056805F0450000B100E0F7E700BF64
:10076000042003F0BBF820B1042003F0C2F80320FA
:1007700070BD012003F0B2F820B1012003F0B9F8F8
:100780000120F5E7E9480C300068A04201D01020B4
:10079000EEE740F2FF5003F0ACF8E4481030006898
:1007A00008210840C0B2E3E72DE9FC4107460D46A9
:1007B000002600240020009001900820DC490860F9
:1007C00010204860402088600020C8604FF480609E
:1007D0000861084602F0EFFF1020FFF7B5FF04465E
:1007E00014B12046BDE8FC81D24800880004D049FD
:1007F000086037204860402088600020C8604FF4BF
:1008000080600861084602F0D6FF3720FFF79CFFA2
:1008100004460CB12046E5E74FF0FF30C6490860BA
:1008200008204860302088600220C86000200861ED
:1008300001204861084602F0EAFF0020BC49086038
:1008400033204860402088600020C8604FF48060FA
:100850000861084602F0AFFF3320FFF775FF04463A
:100860000CB12046BEE70DE04FF4001003F036F85F
:1008700040B1AE487C3000684DF82600761C022E50
:1008800000D307E0A9483030006840F22A610840F0
:100890000028E9D000BF082003F020F820B108208C
:1008A00003F027F804209DE7022003F017F820B199
:1008B000022003F01EF8022094E7202003F00EF837
:1008C00020B1202003F015F806208BE74FF40070CC
:1008D00003F004F828B14FF4007003F00AF8072081
:1008E00080E740F2FF5003F004F8009800060099FA
:1008F00001F47F4140EA0120009901F47F0140EAC0
:100900001120009940EA1160686001980006019981
:1009100001F47F4140EA0120019901F47F0140EA9E
:100920001120019940EA1160286020465AE77CB501
:100930000546002400200090019000260DB10226FB
:1009400000E0002679481030006800F0007008B11F
:100950000E207CBD7749098888B26946FFF724FFDD
:1009600004460CB12046F4E7019800F4802060B3FF
:100970007048008800046E490860372048604020B5
:1009800088600020C8604FF480600861084602F06B
:1009900012FF3720FFF7D8FE04460CB12046D8E7F7
:1009A0006348066006206249486040208860002055
:1009B000C8604FF480600861084602F0FCFE062023
:1009C000FFF7C2FE04462046C3E72520C1E770B505
:1009D0000446002559480078032802D127252846D7
:1009E00070BD5648007838B154480078012803D0CB
:1009F00052480078022817D1B4F5805F02D127252C
:100A00002846EDE7E0B2FFF792FF054665B9474893
:100A1000006820F4C050454908600846006820433B
:100A200008600846006808602846D9E710B5044603
:100A30003F48046007203E4948604020886000200D
:100A4000C8604FF480600861084602F0B4FE0720D9
:100A5000FFF77AFE10BDF0B5014600200022374BAB
:100A60001B7881F85630334B1B88A1F85430344B37
:100A70001B681A0E93090B70C2F383034B7002F0CC
:100A800003038B702E4B1B68C3F30742CA702C4BB9
:100A90001B88C3F307220A71294B1A784A715B68D5
:100AA0001A0E1301CB80264B5B68C3F30742CB8839
:100AB00043EA1213CB8002F00F030B72204B9B888A
:100AC000C3F30722D3094B72C2F380138B72C2F3B4
:100AD0004013CB72C2F300130B7300234B73174BFD
:100AE0001B783BB1154B1B78012B03D0134B1B78A4
:100AF000032B5FD193071B0D0B61114B1A790B6907
:100B000043EA82030B610E4B9B681A0E0B6943EAA2
:100B100092130B61C2F3C2030B7502F007034B750E
:100B2000074B9B680EE000008C050020042C014060
:100B3000D805002088050020EC0500208405002051
:100B400004060020C3F3074253098B75C2F38203E6
:100B5000CB7593075B0F0B76FA4B1B89C3F3072208
:100B60000B7E43EAD2130B760B695B1C0024C1E9B0
:100B700012340B7E9B1C012404FA03F3DC17D1E929
:100B80001256A5FB037C06FB03C305FB0433C1E936
:100B900012730C7A0123A3400B650024D1E912657E
:100BA0000B6DA6FB037C05FB03C306FB0433C1E905
:100BB00012732EE0E44B1B78022B2AD1E14B1A79F9
:100BC00093069B0A0B61DF4B9B681A0E0B6943EA85
:100BD00002230B61DB4B9B68C3F307420B69134392
:100BE0000B61D84B1B89C3F307220B695B1C4FF4C5
:100BF0000074A3FB04464FF480630025A4FB037C30
:100C000006FB03C304FB0533C1E912734FF4007301
:100C10000B65C2F3801301F8193F93065B0E4B700E
:100C2000C84B1A7A4B7843EAD2134B7002F07F0319
:100C30008B70C44BDB681A0ED309CB70C2F341131F
:100C40000B71C2F382034B7193071B0F8B71BD4B6A
:100C5000DB68C3F307428B7943EA92138B71C2F3CB
:100C60004013CB7100230B7202F001034B72B54BA2
:100C70009B89C3F30722D3098B72C2F38013CB7213
:100C8000C2F340130B73C2F300134B73C2F381031F
:100C90008B7302F00303CB73AA4B1A7B53080B74BC
:100CA00001234B74A94B1B681A0ECA741939A74B40
:100CB0001B68C3F307421402CC85A44B1B88C3F303
:100CC0000722CB8D1343CB85A04B1A7814060C63F7
:100CD0005B681A0E0B6B43EA02440C639B4B5B6828
:100CE000C3F307420B6B43EA02240C63974B9B88C8
:100CF000C3F307220B6B13430B63944B1A79342312
:100D00005A54924B9B681A0E35235A548F4B9B684A
:100D1000C3F3074214068C638C4B1B89C3F3072271
:100D20008B6B43EA02448C63884B1A7A8B6B43EAE1
:100D300002248C63854BDB681A0E8B6B13438B6329
:100D4000824BDB68C3F307423C235B5C43EA12142B
:100D50003C235C5413071C0DCC877C4B9B89C3F34D
:100D60000722CB8F1343CB87784B1A7B5408402341
:100D70005C54012441235C54F0BD70B500264FF44F
:100D8000803505E07248046804F0450000B103E0D6
:100D9000281EA5F10105F5D100BF15B104F004002E
:100DA00028B10326042002F0A4FD304670BD0120C6
:100DB00002F094FD18B10126012002F09AFD40F2E4
:100DC000FF5002F096FD3046F0E72DE9F041054670
:100DD0000E464FF0000805E05D48076807F0450043
:100DE00000B100E0F8E700BF042002F077FD28B171
:100DF000042002F07EFD0320BDE8F081012002F016
:100E00006DFD20B1012002F074FD0120F4E750488F
:100E100024380068A84201D01020EDE740F2FF50CE
:100E200002F067FD4A482038046804F4604018B9AD
:100E3000200C30804046DFE704F4005008B1132056
:100E4000DAE704F4804008B11020D5E704F400404C
:100E500008B10F20D0E74046CEE738B50024012086
:100E6000009002F0A2FC10B92524204638BD364877
:100E70000078042825D00020364908600220486008
:100E8000C02088600020C8604FF480600861084678
:100E900002F091FCFFF771FF04460CB12046E5E734
:100EA0002B48203800682949086029481C38006808
:100EB000486027481838006888602548143800685A
:100EC000C8602148007858B11F480078012807D031
:100ED0001D480078062803D01B480078022816D148
:100EE00000201C49086003204860402088600020E2
:100EF000C8604FF480600861084602F05CFC6946F7
:100F00000320FFF762FF04460CB12046AEE70E480F
:100F10000078032820D1BDF8000000040D490860C6
:100F200003204860402088600020C8604FF4806043
:100F30000861084602F03FFCFFF71FFF04465CB162
:100F4000204693E7040600208405002014060020B4
:100F5000342C0140D8050020FB48007804282AD012
:100F6000BDF80000F9490860BDF800000004F84928
:100F7000086009204860C02088600020C8604FF4E5
:100F800080600861084602F016FCFFF7F6FE044692
:100F90000CB120466AE7EF480068EF490860ED4869
:100FA000001D00684860EB48083000688860E94828
:100FB0000C300068C860002058E710B506E0E5482E
:100FC0002030046804F0450000B100E0F7E700BFFE
:100FD000042002F083FC20B1042002F08AFC0320EC
:100FE00010BD40F2FF5002F084FC0020F8E770B51D
:100FF00000264FF4803506E0D6482030046804F01F
:10100000450000B103E0281EA5F10105F4D100BFA1
:1010100015B104F0040028B10326042002F069FC95
:10102000304670BD04F0400018B10026402002F0A8
:1010300060FC3046F5E770B500254FF4803404E0DD
:10104000802002F04BFC00B103E0201EA4F101045B
:10105000F6D100BF0CB9032070BD40F2FF5002F082
:1010600048FC2846F8E72DE9F04700270024002631
:101070000025A046A1467620B849087500200860E2
:1010800048608860C8600861084602F06AFB032077
:1010900002F087FBAF481038006840F48070AD491B
:1010A0001039086000BF12E00020A94908604860BC
:1010B0008860C8604FF480600861084602F07BFBDE
:1010C000FFF7B9FF044604B903E0781CC7B24A2F02
:1010D000EADB00BF14B12046BDE8F0874FF4D570BD
:1010E0009B49086008204860402088600020C86054
:1010F0004FF480600861084602F05DFBFFF777FF60
:10110000044624B90120904908704FF0804900201E
:101110008F49086037204860402088600020C86000
:101120004FF480600861084602F045FB3720FFF766
:101130000BFB0446002C4BD134E0002084490860AE
:1011400037204860402088600020C8604FF48060ED
:101150000861084602F02FFB3720FFF7F5FA044636
:101160000CB12046B8E77E4849EA0000784908609B
:1011700029204860402088600020C8604FF48060CB
:101180000861084602F017FBFFF717FF04460CB191
:101190002046A1E76F480668012080EAD67080F0FB
:1011A00001086D1CB8F1000F03D14FF6FF708542A6
:1011B000C3D34FF6FF70854202D31B2420468BE732
:1011C00006F08040061E32D002205F4908702EE0F3
:1011D0001CE064485E490860012048604020886047
:1011E0000020C8604FF480600861084602F0E3FA0E
:1011F000FFF7E3FE04460CB120466DE7554806684C
:10120000012080EAD67080F001086D1CB8F1000F53
:1012100003D14FF6FF708542DBD34FF6FF70854256
:1012200002D31B24204657E7032047490870204675
:1012300052E73EB5002401214B4801F009FF01218E
:10124000C80201F05FFF0121C80201F0B0FF4FF4B6
:10125000F850019002208DF808008DF80900002058
:101260008DF80A0001208DF80B0001A93F4801F01C
:1012700051FC0420019002208DF808008DF809002F
:1012800000208DF80A0001208DF80B0001A93848D4
:1012900001F040FC0C220821344801F0C6FC0C226D
:1012A0000921324801F0C1FC0C220A212F4801F02B
:1012B000BCFC0C220B212D4801F0B7FC0C2211467E
:1012C0002A4801F0B2FC0C220221294801F0ADFCB1
:1012D00000214FF4006001F06AFF31208DF800001A
:1012E00000208DF801008DF8020001208DF8030028
:1012F000684601F01EFBFFF7B6FE044614B9FFF77F
:10130000ACFD04461CB91B48FFF7A5FB044634B9E5
:101310001849B1F854100804FFF788FB044624B9B3
:101320004FF40060FFF753FB04461CB106480078F9
:10133000032806D10F20FFF7FFF90020FFF7F2F98D
:10134000044620463EBD000084050020880500209C
:10135000D8050020142C014004060020C005002000
:10136000000010800080FF800C0040000008024058
:10137000000C02402806002010B5002002F011FAEF
:10138000002010BD70B590B004460E46154600BF53
:10139000F94802F0F2FB0028FAD1F74802F0C4FA4B
:1013A0004FF000600190F5480290039404950020EE
:1013B000059006904FF480600790800008908000B0
:1013C000099000200A904FF440300B9004200C90BC
:1013D00003200D904FF400000E9080100F9001A993
:1013E000E54802F043FB2021E34802F08FFB012196
:1013F000E14802F075FB10B070BD0146002002E02C
:101400004910421CD0B20129FAD170472DE9F84F9A
:101410008146174698460A9C4FF0000AD3464D462F
:101420004FF0FF36B9F1000F02D12620BDE8F88F4A
:101430000020D24954390860D1480078022805D1EB
:101440000402780A40EAC8574FEA68280020CD49CC
:1014500088604860401E0860012048610020C86024
:101460000861084602F0D3F9C4486C38006800F0FF
:10147000007008B10E20D9E7002C21DDB4F5006F13
:101480001EDC601E2040D8B92046FFF7B6FF009052
:10149000BD4804601020BC4948604020886000209E
:1014A000C8604FF480600861084602F084F910209B
:1014B000FFF74AF98246BAF1000F03D05046B5E76C
:1014C0002620B3E700980001AE49886008464460D2
:1014D0004FF0FF300860012048610220C860002002
:1014E0000861084602F093F9A74807601120A64951
:1014F0004860402088600020C8604FF48060086128
:10150000084602F058F91120FFF71EF98246BAF199
:10151000000F01D0504689E79C48007800285AD136
:10152000FEF7F9FE17E04FF4004002F0D7F970B172
:101530004FF0000B05E09148006845F82B000BF1D7
:10154000010BBBF1080FF6D32035914E03E00EB925
:1015500004206BE7761E89484C38006840F22A6107
:1015600008400028DFD0082002F0B8F920B1082098
:1015700002F0BFF9042059E7022002F0AFF920B1D0
:10158000022002F0B6F9022050E7202002F0A6F96E
:1015900020B1202002F0ADF9062047E74FF400709B
:1015A00002F09CF928B14FF4007002F0A2F9072074
:1015B0003CE703E07148006828602D1D4FF40010DF
:1015C00002F08CF90028F5D1FEF7A7FE40F2FF509B
:1015D00002F08FF939E06D480078012835D10020FC
:1015E0006C4908706C4908706C490870634844384D
:1015F000006840F22A3108436049443908605F4876
:101600005438006840F008005C49543908600022F2
:1016100021464846FFF7B6FE00E0761E5648583889
:10162000006800F0006038B95C48007820B959487B
:10163000007808B9002EF0D10EB90420F6E655481E
:10164000007810B1534890F800A05046EEE62DE91E
:10165000FF5F17469846DDE90E464FF00009CA467F
:101660004FF0FF354E490098086000204349543937
:10167000086043480078022805D10402780A40EA4D
:10168000C8574FEA682800203E4988604860401EDD
:101690000860012048610020C8600861084602F027
:1016A000B6F836486C38006800F0007018B10E20AB
:1016B00004B0BDE8F09F002C21DDB4F5006F1EDC06
:1016C000601E2040D8B92046FFF797FE83462E487B
:1016D000046010202C494860402088600020C860C9
:1016E0004FF480600861084602F065F81020FFF7AB
:1016F0002BF88146B9F1000F03D04846D8E72620E1
:10170000D6E7012E7DD906FB04F0B0F1007F01D3AE
:101710002620CDE74FEA0B101A49886006FB04F03B
:1017200048604FF0FF300860012048610220C86027
:1017300000200861084602F06AF81348076012208A
:1017400011494860402088600020C8604FF48060E4
:101750000861084602F02FF81220FEF7F5FF8146D7
:10176000B9F1000F01D04846A2E7084800780028E8
:101770007ED1FEF7D0FD33E058640240802C01405A
:1017800084050020EC050020D80500208C050020F1
:10179000FFFF7F008E0500208D0500208F050020B3
:1017A000900500204FF4004002F098F8A0B14FF0EF
:1017B000000A07E0FE480068FE49096841F82A006F
:1017C0000AF1010ABAF1080FF4D3FA480068203090
:1017D000F8490860F84D03E00DB9042068E76D1E74
:1017E000F3484C38006840F22A3108400028D9D02C
:1017F000082002F073F828B1082002F07AF80420DB
:1018000056E79CE0022002F069F820B1022002F0C5
:1018100070F802204CE7202002F060F820B1202070
:1018200002F067F8062043E74FF4007002F056F824
:1018300028B14FF4007002F05CF8072038E709E0A7
:10184000DB480068DB4909680860DA480068001D69
:10185000D84908604FF4001002F040F80028EFD19A
:101860004FF4807002F03AF820B3D448007800E0DA
:1018700027E038B1D1480078012803D0CF4800785C
:10188000022817D10020CE4908600C204860402073
:1018900088600020C8604FF480600861084601F04D
:1018A0008AFF0C20FEF750FF8146B9F1000F01D0EE
:1018B0004846FDE6FEF731FD40F2FF5002F019F810
:1018C0003DE0C0480078012839D10020BE490870A9
:1018D0000120BE4908700020BD490870B448443852
:1018E000006840F22A310843B14944390860B048E1
:1018F0005438006840F00800AD495439086006FBD0
:1019000004F100220098FFF73DFD00E06D1EB14894
:10191000006800F0006008B9002DF7D10DB904206F
:10192000C6E600BFAA48007818B9A7480078002882
:10193000F8D0A548007810B1A34890F80090484628
:10194000B6E61CB50446002001900090A24800882D
:1019500000049B4908600D204860402088600020FA
:10196000C8604FF480600861084601F024FF904889
:101970004C380068009003E08D484C3800680090B7
:10198000009800F045000028F6D0012001F0A6FFE5
:1019900020B1012001F0ADFF01201CBD042001F0A9
:1019A0009DFF20B1042001F0A4FF0320F5E780484B
:1019B000703800680D2801D01020EEE740F2FF508B
:1019C00001F097FF7A486C38006801900198C0F3E5
:1019D000432020700020E0E72DE9FF5F86B0174626
:1019E0009846149D0026002005900490002481460E
:1019F0000390824602900195DDF818B0DDF818B02A
:101A0000BBF1000F03D126200AB0BDE8F09F0020F3
:101A1000674954390860714988604860401E086011
:101A2000012048610020C8600861084601F0EFFE0F
:101A30005F486C38006800F0007008B10E20E3E7E2
:101A40005E480078022805D10502780A40EAC857A6
:101A50004FEA6828002D1FDDB5F5006F1CDC681EFD
:101A60002840C8B92846FFF7C8FC059054480560CF
:101A7000102053494860402088600020C8604FF41F
:101A800080600861084601F096FE1020FEF75CFEBB
:101A900006461EB13046B7E72620B5E74E48008817
:101AA0000004474908600D204860402088600020FD
:101AB000C8604FF480600861084601F07CFE0D208C
:101AC000FEF742FE06460EB130469DE738486C38B8
:101AD000006803904FF0FF341CE0641E3E4800880D
:101AE0000004374908600D204860402088600020CD
:101AF000C8604FF480600861084601F05CFE0D206C
:101B0000FEF722FE06460EB130467DE728486C38C7
:101B100000680390039800F4807008B9002CDCD1B1
:101B20000CB9292070E7264807601820244948602E
:101B3000402088600020C8604FF48060086108463B
:101B400001F039FE1820FEF7FFFD06460EB13046C3
:101B50005AE700201D490870059800011F49886058
:101B6000084645604FF0FF300860012048610020C2
:101B7000C8600861084601F04AFE4FF0FF34114882
:101B80000078002870D1FEF7C6FB5CE04FF480407F
:101B900001F0A4FE88B30198A0EB090020283BD2F5
:101BA0000198A0EB090000F00300E8B9019817E0E4
:101BB000802C014090050020FFFF7F00840500205D
:101BC000D80500208C0500208E0500208D05002002
:101BD0008F0500200064024088050020EC050020ED
:101BE000A0EB0900800804E00198A0EB0900800840
:101BF000401C02904FF0000A0AE020E0F849DBF8B0
:101C0000000008600AF1010A0BF1040B09F1040954
:101C100002988245F2D30FE04FF0000A05E05BF82E
:101C20002A00EF4908600AF1010ABAF1080FF6D359
:101C30000BF1200B09F120096FF0404403E00CB9CF
:101C40000420E1E6641EE6484C38006840F21A6160
:101C5000084000289AD0082001F040FE28B1082052
:101C600001F047FE0420CFE623E0022001F036FE1B
:101C700020B1022001F03DFE0220C5E6102001F057
:101C80002DFE20B1102001F034FE0520BCE64FF4FB
:101C9000007001F023FE28B14FF4007001F029FE1E
:101CA0000720B1E6FEF739FB40F2FF5001F021FEBC
:101CB00043E0CC48007801283FD10020CA49087091
:101CC000CA490870CA490870C5484438006840F2DB
:101CD0001A310843C249443908604022294606980F
:101CE000FFF750FBBE485438006840F00800BC497C
:101CF0005439086000E0641EBE48006800F00060CF
:101D000008B9002CF7D11CB9FFF793FA04207BE641
:101D10004FF0FF3400E0641EB548007820B9B248A7
:101D2000007808B9002CF6D10CB904206CE6AE4856
:101D3000007810B1AC48007866E640F2FF5001F040
:101D4000D8FD04A8FFF7FDFD064603E004A8FFF751
:101D5000F8FD06463EB99DF810000728F6D09DF81C
:101D600010000628F2D030464EE62DE9FF5F84B021
:101D7000DDE91247002600200390029000258046EE
:101D80008146019007FB04FBDDF810A0DDF810A0F0
:101D9000BAF1000F03D1262008B0BDE8F09F002063
:101DA0008F4954390860944988604860401E086033
:101DB000012048610020C8600861084601F027FD45
:101DC00087486C38006800F0007008B10E20E3E727
:101DD0008A480078022808D10402DDE90601400A99
:101DE00040EAC1504912CDE90601002C1FDDB4F5CF
:101DF000006F1CDC601E2040C8B92046FFF7FDFACA
:101E000003907F48046010207D494860402088602E
:101E10000020C8604FF480600861084601F0CBFCE8
:101E20001020FEF791FC06461EB13046B4E726208E
:101E3000B2E7012F6FD907FB04F0B0F1007F01D3A7
:101E40002620A9E76D48007838B16C480078012851
:101E500003D06A48007802282DD16A48008800041F
:101E60006749086037204860402088600020C860CB
:101E70004FF480600861084601F09DFC3720FEF7B2
:101E800063FC06460EB1304686E75D4807601720C2
:101E90005B494860402088600020C8604FF4806043
:101EA0000861084601F087FC1720FEF74DFC064646
:101EB0000EB1304670E75249069808601920486014
:101EC000402088600020C8604FF4806008610846A8
:101ED00001F071FC1920FEF737FC06460EB13046C2
:101EE0005AE7039800014449886007FB04F0486002
:101EF0004FF0FF300860012048610020C860086191
:101F0000084601F084FC37480078002867D1451E58
:101F1000FEF701FA40E0F6E04FF4804001F0DEFC0D
:101F2000A8B3ABEB080020281ED2ABEB080000F0F2
:101F3000030018B9ABEB0800800803E0ABEB080026
:101F40008008401C01904FF0000909E02449DAF8AC
:101F50000000086009F101090AF1040A08F1040807
:101F600001988145F2D30FE04FF0000905E05AF8DF
:101F700029001B49086009F10109B9F1080FF6D3DE
:101F80000AF1200A08F120086FF0404504E0FFE75D
:101F90000DB9042000E76D1E11484C38006840F26E
:101FA0001A3108400028B7D0082001F097FC20B172
:101FB000082001F09EFC0420EEE6022001F08EFCD9
:101FC00020B1022001F095FC0220E5E6102001F08E
:101FD00085FCC8B1102001F08CFC0520DCE64BE04C
:101FE000802C01408C0500208E0500208D050020EE
:101FF0008F05002000640240EC05002084050020CD
:10200000D8050020880500204FF4007001F066FC20
:1020100028B14FF4007001F06CFC0720BCE64FF4CF
:10202000807001F05BFC00B3F348007838B1F248EF
:102030000078012803D0F0480078022815D100204C
:10204000EE4908600C204860402088600020C8608D
:102050004FF480600861084601F0ADFB0C20FEF7EC
:1020600073FB06460EB1304696E6FEF756F940F28F
:10207000FF5001F03EFC46E0E1480078012842D1E3
:102080000020E04908700120DF4908700020DF4986
:102090000870DF48006840F21A310843DC490860E4
:1020A00007FB04F140220498FFF76CF9D848103878
:1020B000006840F00800D649103908604FF0FF353D
:1020C00000E06D1ED348006800F0006008B9002DE4
:1020D000F7D11DB9FFF7ADF804205DE64FF0FF35ED
:1020E00000E06D1EC948007820B9C648007808B9DC
:1020F000002DF6D10DB904204EE6C248007810B18B
:10210000C048007848E640F2FF5001F0F2FB02A818
:10211000FFF717FC064603E002A8FFF712FC06468D
:102120003EB99DF808000728F6D09DF8080006285B
:10213000F2D0304630E610B54FF4807001F0CEFB9F
:1021400080B3B1480078012814D10020AB49086061
:102150000C204860402088600020C8604FF48060F8
:102160000861084601F027FB0C20FEF7EDFAA549AF
:10217000087002E00020A3490870A548001F00680D
:1021800040F48070A249091F0860081D00684CF2E5
:102190003A3188439E49086001209C49087099485B
:1021A000007810BDFFE7022001F098FB68B1022023
:1021B00001F09FFB964800684CF23A3188439449FD
:1021C000086002208F490870EBE7082001F086FBC9
:1021D00068B1082001F08DFB8D4800684CF23A315F
:1021E00088438B490860042086490870D9E720207D
:1021F00001F074FB68B1202001F07BFB844800688B
:102200004CF23A3188438249086006207D490870C3
:10221000C7E7102001F062FB68B1102001F069FBF4
:102220007B4800684CF23A318843794908600520C0
:1022300074490870B5E74FF4007001F04FFB70B1BE
:102240004FF4007001F055FB714800684CF23A31D0
:1022500088436F49086007206A490870A1E7002099
:102260009FE770B50446002514B92625284670BDA1
:10227000694800880004614908600D2048604020DA
:1022800088600020C8604FF480600861084601F053
:1022900092FA0D20FEF758FA05460DB12846E6E7FA
:1022A0005B482838006820602846E0E708B5002031
:1022B00000906846FFF7D5FF08B1FF2008BD0098E1
:1022C000C0F34320FAE72DE9FE4F83460E469146C0
:1022D00000200290002534464748007818B1680273
:1022E00040EAD45564020BF00300F0B14FF0000A4D
:1022F00018E04FF4007000904FEA4A20071945EBB0
:10230000E0733A464548FFF781F802904FF40072B7
:102310004249584605F0DBF90BF5007B0AF1010054
:1023200000F0FF0ACA45E4DB16E0B9F1010F09D15C
:102330004FF4007022462B4600905846FFF766F88F
:10234000029009E04FF4007022462B46CDE90009C7
:102350005846FFF77CF902900298BDE8FE8F2DE900
:10236000FE4F0646894692460020029000254C46C4
:102370002148007818B1680240EAD455640206F09A
:102380000300F0B14FF0000B18E04FF4007231463B
:10239000224805F09CF94FF4007000904FEA4B2062
:1023A000071945EBE0733A461C48FFF715FB02900E
:1023B00006F500760BF1010000F0FF0BD345E4DBDE
:1023C00016E0BAF1010F09D14FF4007022462B46F6
:1023D00000903046FFF700FB029009E04FF40070D8
:1023E00022462B46CDE9000A3046FFF7BEFC02909C
:1023F0000298BDE8FE8F000084050020D80500206B
:102400008C0500208E0500208D0500208F05002002
:102410003C2C01400064024088050020800600201A
:102420002DE9F0410746884615461C46069E29467A
:10243000384603F009FB334622464146384603F04E
:10244000A4F9384603F096FA3068A04202D0012081
:10245000BDE8F0810020FBE72DE9F04780460D46FE
:1024600016461C46089F284605F006F9814649464F
:10247000284605F071F93146404603F0E5FA3B463F
:1024800022462946404603F0A0F8404603F072FA7F
:102490003868A04202D00120BDE8F0870020FBE7A9
:1024A00070B505460C46284605F0E6F80646314666
:1024B000284605F051F9224676A1284604F002FF8D
:1024C00075A1284605F0F7F870BD70B504460D46B5
:1024D0000020206022466FA1284605F009F8284612
:1024E00005F0CAF806463146284605F035F970BDB4
:1024F000F8B504460E4615466848D0F88805674981
:102500004968884203D900206449C1F888056348B6
:10251000D0F888151030FFF7C3FF614804EBC40200
:102520000923A0F5B06100905E48FFF779FF012113
:102530005A481030FFF7B4FF5948A2000423A0F511
:10254000B06100905848FFF76BFF294653481030A0
:10255000FFF7A6FF5248009004EB44004200062318
:102560004E4910315148FFF75BFF05204B49C1F838
:102570009405052149481030FFF792FF4848A20012
:102580000423A0F5B06100904948FFF749FF00BF60
:102590004248D0F89415D0F89405401E3F4AC2F83E
:1025A000940559B13E48009010462B463146D0F86C
:1025B00088254048FFF734FF0028E9D13748D0F894
:1025C000880528443549C1F88805F8BDF8B50446A2
:1025D0000E461546384804EBC4020723A0F5B06147
:1025E00000903048FFF738FF2D49083101F5AF6002
:1025F000FFF76BFF3048A2000223A0F5B061009006
:102600002948FFF729FF26490831A1F28C50FFF72E
:102610005CFF2948009004EB440042000423204959
:1026200008312248FFF718FF1D49083101F27C509C
:10263000FFF74BFF2048A2000223A0F5B0610090F5
:102640001B48FFF709FF1649083101F28450FFF7D4
:102650003CFF1248C068012817D100BF0F48D0F8CE
:102660001C1BD0F81C0B401E0C4AC2F81C0B61B19D
:10267000114800901046D0F8143B3146D0F8102B8A
:102680000C48FFF7E9FE0028E8D10448D0F8180B01
:102690002860F8BD257500000D0A0000100F00200D
:1026A000A0140020D4220020AC2000205C1C0020BC
:1026B000841E0020341A0020281A00200948804770
:1026C00009480047FEE7FEE7FEE7FEE7FEE7FEE714
:1026D000FEE7FEE7FEE7FEE704480549054A064B2C
:1026E00070470000F527000889010008F88A0020DB
:1026F000F8900020F88C0020F88C0020704770477C
:10270000704770477047704770477047704710B503
:10271000FFF711FD10BD00000CB5002001900090E6
:102720007648006840F480307449086000BF734800
:10273000006800F4003000900198401C019000985F
:1027400018B90198B0F5A04FF1D16C48006800F4B9
:10275000003010B10120009001E0002000900098AE
:10276000012846D165484030006840F080506349F8
:10277000403108606248006840F4404060490860A9
:102780005E48083000685D49083108600846006806
:1027900040F4004008600846006840F4A05008601B
:1027A0005848091F0860081F006840F08070091F22
:1027B000086000BF5148006800F000700028F9D0A0
:1027C00040F20570504908604C480830006820F01D
:1027D00003004A49083108600846006840F00200DA
:1027E000086000BF45480830006800F00C00082869
:1027F000F8D10CBD10B54548006840F4700043495D
:1028000008603E48006840F001003C490860002034
:102810003A4908310860394800683D49084037495D
:1028200008603C48091D0860081F006820F48020EB
:10283000091F0860002031490C310860FFF76CFF68
:102840004FF0006031498039086010BD70B500203C
:102850000022022300240221284D08352D6805F0AE
:102860000C0020B1042806D0082834D107E02A4DF6
:102870002A4E356033E02A4D284E35602FE01F4D3B
:102880002D1D2D68C5F380541C4D2D1D2D6805F0A0
:102890003F0154B1224DB5FBF1F5184E361D366897
:1028A000C6F3881605FB06F209E01B4DB5FBF1F5F2
:1028B000124E361D3668C6F3881605FB06F20F4D1C
:1028C0002D1D2D68C5F301456D1C6B00B2FBF3F5A2
:1028D000124E356003E0104D104E356000BF00BF52
:1028E000064D08352D68C5F303150E4E705D0B4D72
:1028F0002D68C540094E356070BD000000380240AB
:102900000070004008544007003C024088ED00E0A1
:10291000FFFFF6FE103000240024F4009405002090
:1029200000127A009805002032490143324A1160B2
:10293000704770B5002100230F22C4781CB32E4CC1
:10294000246804F4E064C4F5E064C4F30721C1F131
:102950000404E3B20A4144789C40E1B28478144014
:1029600021430C07210E254C05786155047804F0AD
:102970001F050124AC4005786D11AD0005F1E0257F
:10298000C5F8004109E0047804F01F050124AC40BB
:102990001B4D0678761145F8264070BD194A0A404D
:1029A0000243154B1B1F1A60704739B1124A121DA2
:1029B00012680243104B1B1D1A6006E00E4A121DDE
:1029C000126882430C4B1B1D1A607047042808D103
:1029D0004FF0E021096941F004014FF0E02211615C
:1029E00007E04FF0E021096921F004014FF0E022F7
:1029F000116170470000FA050CED00E000E400E012
:102A000080E100E080FFFF1F10B504469848844233
:102A100008D10121084600F086FB0021012000F0CA
:102A200082FB76E09348844208D10121022000F025
:102A30007AFB0021022000F076FB6AE08E48844297
:102A400008D10121042000F06EFB0021042000F0D9
:102A50006AFB5EE08948844208D10121082000F029
:102A600062FB0021082000F05EFB52E084488442B3
:102A700008D10121102000F056FB0021102000F0A9
:102A800052FB46E07F48844208D10121202000F01B
:102A90004AFB0021202000F046FB3AE07A488442BD
:102AA00008D10121402000F03EFB0021402000F031
:102AB0003AFB2EE07548844208D10121802000F0C5
:102AC00032FB0021802000F02EFB22E0704884427F
:102AD00008D10121801500F026FB0021A01500F08F
:102AE00022FB16E06B48844208D10121401500F01A
:102AF0001AFB0021601500F016FB0AE066488442CC
:102B000007D10121001500F00EFB0021201500F077
:102B10000AFB10BDF0B50A4600210023002400BFC7
:102B20003DE0012505FA01F3156805EA03049C421E
:102B300034D105684F000326BE40B54305601579C2
:102B40004E00B5400668354305601579012D02D069
:102B50001579022D16D185684F000326BE40B54376
:102B6000856055794E00B540866835438560456877
:102B700001268E40B5434560456896798E40B6B2D1
:102B800035434560C5684F000326BE40B543C56068
:102B9000D5794E00B540C6683543C560491C10293B
:102BA000BFD3F0BD4FF6FF7101600021017141718B
:102BB0008171C171704708B54FF480320092009A5C
:102BC0000A430092009AC261C161009AC261C2695F
:102BD0000092C269009208BD0246002013690B40B2
:102BE0000BB1012000E0002070470146086980B267
:102BF00070470246002053690B400BB1012000E0F2
:102C0000002070470146486980B2704701837047D1
:102C1000418370470AB1018300E0418370474161FD
:102C2000704742694A4042617047F0B50023002472
:102C30004D07ED0E02FA05F3CE1000F1200555F810
:102C400026504E07F70E0F26BE40B543CF1000F1B9
:102C5000200646F82750CE1000F1200555F82650E2
:102C600045EA0304CE1000F1200545F82640F0BDEA
:102C7000000002400004024000080240000C024034
:102C8000001002400014024000180240001C0240E4
:102C9000002002400024024000280240F948006859
:102CA00040F00100F74908600020F649083108604B
:102CB000F4480068F4490840F2490860F348091DE7
:102CC0000860F348EF4984310860F0481038091D66
:102CD0000860EC48006820F48020EA490860002081
:102CE000E8490C310860E7498C31086070470021E1
:102CF000E44A921C117011460870704710B50146E5
:102D00000022002300204A11012A02D1DD4C236851
:102D100008E0022A03D1DB4C7034236802E0D94C6E
:102D20007434236801F01F02012494401C400CB14C
:102D3000012000E0002010BD38B5002000900024E4
:102D4000002500BF3120FFF7D9FF05460098401C41
:102D500000900098B0F5A04F01D0002DF2D03120A6
:102D6000FFF7CCFF08B1012400E00024204638BD65
:102D700001460020C34A106820F0F80040EAC10074
:102D800010607047C349086070470021BD4A703227
:102D900011701170012802D004280AD104E0012129
:102DA000B84A7032117005E00521B64A70321170D0
:102DB00000E000BF00BF7047B7490860704770B5BA
:102DC000049C41EA82150126C6EB530645EA0645F6
:102DD000054345EA0465AB4E361D356070BDAD490F
:102DE00008667047820142EA0172A64B84331A607A
:102DF0007047A8498866704710B5830143EA0163AC
:102E000043EA02739F4C8834236010BDA1490867D0
:102E10007047A049C864704702460020994B0833A8
:102E2000186820F0EC6042EA01031843954B083320
:102E30001860704702460020924B0833186820F053
:102E4000784042EA010318438E4B083318607047FC
:102E5000014600208B4A0832106820F00300084326
:102E60001060704787480830006800F00C00704719
:102E700001460020834A0832106820F0F000084321
:102E800010607047014600207E4A0832106820F426
:102E9000E05008431060704701460020794A08322C
:102EA000106820F4604040EAC10010607047F0B53F
:102EB000002100220024022500260223714F08373A
:102EC0003F6807F00C0121B1042905D0082937D14A
:102ED00005E0724F076036E0714F076033E0694FDD
:102EE0003F1D3F68C7F38056664F3F1D3F6807F0A0
:102EF0003F036EB16A4FB7FBF3F7DFF888C10CF1FF
:102F0000040CDCF800C0CCF3881C07FB0CF40CE0CC
:102F1000624FB7FBF3F7DFF86CC10CF1040CDCF87F
:102F200000C0CCF3881C07FB0CF4564F3F1D3F68D4
:102F3000C7F301477F1C7D00B4FBF5F7076002E093
:102F4000564F076000BF00BF4E4F08373F6807F07D
:102F5000F0010909534F7A5C0768D7404760494F31
:102F600008373F6807F4E051890A4E4F7A5C47689A
:102F7000D7408760434F08373F6807F46041490BEB
:102F8000484F7A5C4768D740C760F0BD002100F425
:102F90004072B2F5407F0AD13A4A0832116821F4F2
:102FA000F811414A02401143364A08321160354A4D
:102FB00070321268C0F30B031A43324B70331A603D
:102FC00070473549443908607047334940390860D3
:102FD000704736490860704701460020294A8C3204
:102FE000106820F01F004A1E1043264A8C321060E1
:102FF000704701460020234A8C32106820F4F850B4
:103000004A1E40EA02201F4A8C3210607047014677
:1030100000201C4A8C32106820F4401008431060D5
:10302000704701460020174A8C32106820F4400097
:1030300008431060704701460020124A8C32106825
:1030400020F4403008431060704719490860704709
:1030500039B10C4A3032126802430A4B30331A60DD
:1030600006E0084A303212688243064B30331A6059
:103070007047F9B1034A343212680243014B3433CA
:103080001A601CE000380240FFFFF6EA103000240E
:103090000030002000004742800E47420024F40028
:1030A00000127A00A8050020FFFCFF0F5C014742D8
:1030B000E01147428F4A126882438E4B1A60704774
:1030C00039B18C4A121D126802438A4B1B1D1A60CB
:1030D00006E0884A121D12688243864B1B1D1A6047
:1030E000704739B1834A0C3212680243814B0C336A
:1030F0001A6006E07F4A0C32126882437D4B0C3323
:103100001A60704739B17B4A103212680243794B1A
:1031100010331A6006E0774A103212688243754B0A
:1031200010331A60704739B1724A243A1268024368
:10313000704B243B1A6006E06E4A243A12688243C0
:103140006C4B243B1A60704739B16A4A203A1268C6
:103150000243684B203B1A6006E0664A203A126838
:103160008243644B203B1A60704739B1614A1C3A74
:10317000126802435F4B1C3B1A6006E05D4A1C3A32
:10318000126882435B4B1C3B1A60704739B1594A45
:10319000143A12680243574B143B1A6006E0554A32
:1031A000143A12688243534B143B1A60704739B18A
:1031B000504A103A126802434E4B103B1A6006E028
:1031C0004C4A103A126882434A4B103B1A607047CF
:1031D00039B1484A1C3212680243464B1C331A600C
:1031E00006E0444A1C3212688243424B1C331A6088
:1031F000704739B13F4A2032126802433D4B2033B9
:103200001A6006E03B4A203212688243394B203371
:103210001A60704739B1374A243212680243354B7D
:1032200024331A6006E0334A243212688243314B59
:1032300024331A60704739B12E4A2C321268024387
:103240002C4B2C331A6006E02A4A2C321268824337
:10325000284B2C331A60704739B1264A3032126835
:103260000243244B30331A6006E0224A303212689F
:103270008243204B30331A607047012808D11D4922
:103280003C31096841F008011A4A3C32116007E0FC
:1032900018493C31096821F00801164A3C32116096
:1032A000704739B1134A273A12780243114B273B32
:1032B0001A7006E00F4A273A127882430D4B273BDB
:1032C0001A7070470B484030006840F08070094920
:1032D00040310860704701460020064A283A1268CB
:1032E0000A400AB1012000E0002070470149263958
:1032F000087070473438024010B50446FA488442DA
:1033000008D101211020FFF752FF00211020FFF704
:103310004EFF57E0F548844209D101214804FFF7E8
:1033200035FF00214FF40030FFF730FF4AE0F0484E
:10333000844209D101218804FFF728FF00214FF4BE
:103340008020FFF723FF3DE0EA48844209D10121B4
:10335000C804FFF71BFF00214FF40020FFF716FF02
:1033600030E0E548844209D101210805FFF70EFF4E
:1033700000214FF48010FFF709FF23E0DF4884426B
:1033800008D101212020FFF712FF00212020FFF7A4
:103390000EFF17E0DA48844209D101218807FFF7C0
:1033A000F5FE00214FF08040FFF7F0FE0AE0D5481F
:1033B000844207D101214005FFF7E8FE00216005A6
:1033C000FFF7E4FE10BD2DE9FF4705460E46002439
:1033D000A14600BFA046B08900B100BF2C8A24F4EA
:1033E0004054F08804432C82AC8941F20C60844341
:1033F000B08831890843718908430443AC81AC8AA1
:1034000024F44074B0890443AC826846FFF74FFD52
:10341000B548854202D0B948854202D1DDF80C900A
:1034200001E0DDF80890A88900F4004040B109EB04
:10343000C90000EB091031684900B0FBF1F707E063
:1034400009EBC90000EB091031688900B0FBF1F706
:103450006420B7FBF0F004012009642101FB10781F
:10346000A88900F4004040B1322000EBC800B0FB56
:10347000F1F000F00700044308E0322000EB0810F0
:103480006421B0FBF1F000F00F0004432C81BDE893
:10349000FF874FF41651016000218180C1800181B6
:1034A0000C21418100218181704710B50246002026
:1034B000108A20F470600B884C8823438C88234347
:1034C000CC8823431843108210BD00210180418025
:1034D0008180C180704721B1828942F4005282818B
:1034E00004E082894DF6FF731A4082817047028B97
:1034F00002F47F420283028B0A430283704721B1A8
:10350000828942F40042828103E08289C2F30E0282
:103510008281704721B1828A42F40062828204E093
:10352000828A4FF2FF731A4082827047C1F3080209
:103530008280704701468888C0F308007047028A7D
:103540004FF6F0731A400282028A0A4302827047E1
:1035500021B1828942F00202828104E082894FF621
:10356000FD731A408281704782894FF2FF731A40BF
:10357000828182890A4382817047028A4FF6DF7313
:103580001A400282028A0A430282704721B1028AEB
:1035900042F48042028204E0028A4BF6FF731A4032
:1035A00002827047818941F001018181704721B118
:1035B000828A42F00802828204E0828A4FF6F77320
:1035C0001A4082827047028BD2B20283028B42EA97
:1035D00001220283704721B1828A42F02002828256
:1035E00004E0828A4FF6DF731A408282704721B16D
:1035F000828A42F01002828204E0828A4FF6EF73E0
:103600001A4082827047828A4FF6FB731A40828288
:10361000828A0A438282704721B1828A42F0020282
:10362000828204E0828A4FF6FD731A4082827047DC
:103630001AB1838A0B43838202E0838A8B4383829D
:103640007047F0B50346002400260025002040F610
:103650006A17B94200D100BF1846C1F3421401F005
:103660001F06012707FA06F5012C01D10C3004E0F2
:10367000022C01D1103000E014301AB107682F433A
:10368000076002E00768AF430760F0BD0246002014
:10369000B1F5007F00D100BF13880B400BB10120B2
:1036A00000E00020704701F40072B2F5007F00D105
:1036B00000BFCA430280704770B502460024002351
:1036C0000025002040F66A16B14200D100BFC1F3C8
:1036D000421501F01F03012606FA03F3012D13D151
:1036E0009689334017E0000000100140004400407C
:1036F00000480040004C00400050004000140140D1
:1037000000780040007C0040022D02D1168A334030
:1037100001E0968A33400C12012606FA04F416885A
:10372000344013B10CB1012000E0002070BD10B591
:103730000022002340F66A14A14200D100BF0A1201
:1037400001249440A3B2DC43048010BD10B50121D4
:10375000C802FFF72CFD00214FF40060FFF727FDA2
:1037600010BD00216C4A116847F6FF629143027D4B
:1037700083681A4343681A43C3681A4303681A43A9
:1037800003691A431143644A1160704700210175AF
:10379000016041608160C160016170475F490860FC
:1037A00070475D49091F086070475B48001F00684B
:1037B00000F0030070470021574B1B1D02681A6080
:1037C0001A1D11686FF30A01D0E901231A43C36877
:1037D0001A4303691A4311434F4A08321160704774
:1037E0000021016041608160C160016170474A4809
:1037F0000C300068C0B2704708B501460020009048
:1038000045481030084400900098006808BD002129
:10381000414B203302681A601B1D42681A601A1D52
:10382000116821F0F701D0E902231A4303691A4312
:1038300043691A431143384A2832116070474FF0E8
:10384000FF310160002141608160C160016141611F
:10385000704731482C30006870472F487C30006832
:1038600070472D497C31086070472B484430006810
:1038700070472B49086070472949091D0860704747
:10388000274908310860704725490C3108607047A6
:103890002449086070472349091D086070470121C9
:1038A0008143204A0832116070471E490C3108607C
:1038B00070471B4914390860704739B1164A3832CD
:1038C00012680243144B38331A6006E0124A383249
:1038D00012688243104B38331A607047014600204B
:1038E0000D4A303212680A400AB1012000E000207F
:1038F0007047094934310860704701460020064A84
:10390000303212680A400AB1012000E000207047FE
:103910000149343108607047042C0140A0802542E1
:10392000A0852542AC812542016821F0010101609A
:103930000021016041608160C1600161212141611C
:10394000DB49884204D13D21D94A103A91608CE08C
:10395000D7491831884205D14FF47461D44A103ADE
:10396000916082E0D2493031884205D14FF4741120
:10397000CF4A103A916078E0CD494831884205D16C
:103980004FF07461CA4A103A91606EE0C8496031E4
:10399000884204D1C749C64A103AD16065E0C4499B
:1039A0007831884204D1C449C14A103AD1605CE000
:1039B000BF499031884204D1C049BD4A103AD16014
:1039C00053E0BB49A831884205D14FF03D51B84A78
:1039D000103AD16049E0BA49884204D13D21B84A41
:1039E000083A116041E0B6491831884205D14FF4D8
:1039F0007461B34A083A116037E0B1493031884206
:103A000005D14FF47411AE4A083A11602DE0AC496B
:103A10004831884205D14FF07461A94A083A1160D3
:103A200023E0A7496031884204D1A249A44A121F69
:103A300011601AE0A2497831884204D19E49A04A17
:103A4000121F116011E09E499031884204D19B49B8
:103A50009B4A121F116008E09949A831884204D19D
:103A60004FF03D51964A121F1160704710B5002269
:103A70000268944B1A40CC680B6823434C6923437B
:103A80008C692343CC6923430C6A23434C6A234348
:103A90008C6A23434C6B23438C6B23431A43026091
:103AA000426922F00702D1E90B3423431A434261F1
:103AB0000B6943604B6883608B68C36010BD002155
:103AC000016041608160C160016141618161C161EA
:103AD000016241628162C162016341638163704737
:103AE00021B1026842F00102026003E0026822F0A4
:103AF00001020260704721B1026842F40042026094
:103B000003E0026822F400420260704721B10268BB
:103B100042F02002026003E0026822F0200202600C
:103B20007047416070470146486880B2704722B1D3
:103B3000036843F40023036003E0036823F40023D5
:103B400003600161704721B1026842F48022026083
:103B500003E0026822F48022026070470AB101612A
:103B600000E0C1607047014600200A6802F40022AC
:103B70000AB1012000E000207047014600200A68D9
:103B800002F001020AB1012000E000207047014666
:103B900000204A6902F03800704730B503460A46F3
:103BA00000200024464DAB4202D24149103901E0C9
:103BB0004349103902F000550DB14C6800E00C6823
:103BC000414D2C4004EA02050DB1012000E0002027
:103BD00030BD02463A4B9A4202D23548103801E0D5
:103BE0003748103801F000531BB1374B0B40C3600E
:103BF00002E0354B0B408360704710B501F0800345
:103C00004BB122B1436943F08003436103E0436950
:103C100023F08003436180290BD02AB1036801F0AF
:103C20001E042343036004E0036801F01E04A34361
:103C3000036010BD70B50246002000240025204E10
:103C4000B24202D21A4B103B01E01D4B103B1F4EFB
:103C50000E4036B11E2606EAD124166806EA04058F
:103C600002E0566906F0800501F000560EB15C686E
:103C700000E01C68144E344004EA010616B10DB190
:103C8000012000E0002070BD02460D4B9A4202D296
:103C90000748103801E00A48103801F000531BB102
:103CA000094B0B40C36002E0074B0B408360704739
:103CB000106002403D000020400F002000003D2029
:103CC000106402403F801CF07D0F7D0F3C0F3C0FC5
:103CD00070B5044600251CB9FDF7ABFA054601E0B6
:103CE000012500BF00BF0DB1012070BD0020FCE721
:103CF0000146002070472DE9F04105460E46174663
:103D00001C464FF0000814B90420BDE8F08195B9B5
:103D1000E2B239463046FEF7D6FA804607E0FDF7B4
:103D200088FAE2B239463046FEF7CDFA8046B8F15D
:103D3000000FF4D102E04FF0010800BF00BFB8F15E
:103D4000000F01D10020E0E70120DEE72DE9F0417E
:103D500005460E4617461C464FF0000814B90420CD
:103D6000BDE8F08195B9E2B239463046FEF7F7FA80
:103D7000804607E0FDF75DFAE2B239463046FEF7CD
:103D8000EEFA8046B8F1000FF4D102E04FF00108DE
:103D900000BF00BFB8F1000F01D10020E0E7012013
:103DA000DEE72DE9F04706468946154646BBB9F1E0
:103DB000000F09D0B9F1010F13D0B9F1020F05D0EE
:103DC000B9F1030F19D106E0002418E04FF4007098
:103DD0002860002413E01348B0F850002880002425
:103DE0000DE010484FF400720023D0E912713846FC
:103DF00003F02BFA2860002401E0042400BF00E057
:103E000001242046BDE8F0870020704710B5044625
:103E1000204603F0BEF910BD10B50446204603F05D
:103E2000F2F910BD2806002070B503460C4603E0E9
:103E300014F8015B03F8015B151EA2F10102F7D132
:103E400070BD30B5034601E003F8011B141EA2F15A
:103E50000102F9D130BDF0B503461C460D460020E5
:103E600000BF161EA2F1010207D014F8017B15F85D
:103E700001CBA7EB0C06301EF3D0F0BD024600E0EC
:103E8000521C107810B110788842F9D11078704720
:103E900070B504462079F8B1E56A607801232A46B6
:103EA00004F13001FFF752FF08B1012070BD00207E
:103EB0002071206A281AA16988420DD2E67809E0AB
:103EC000A0690544607801232A4604F13001FFF718
:103ED0003DFF761E022EF3D20020E7E770B50446C0
:103EE0000D46E06AA84210D02046FFF7D1FF08B186
:103EF000012070BD607801232A4604F13001FFF7EC
:103F0000FAFE08B10120F4E7E5620020F1E770B5A0
:103F100004462046FFF7BCFF0546002D59D1207806
:103F200003284FD1607901284CD14202002104F1CD
:103F30003000FFF786FF552184F82E12AA2184F85D
:103F40002F12522084F83000522131200155612176
:103F500032200155412133200155722184F8141279
:103F600084F81512412184F81612612184F8171281
:103F7000217C84F81812208A010A84F81912206919
:103F8000010C84F81A122069010E84F81B12217B9F
:103F900084F81C12A089010A84F81D12E068010C43
:103FA00084F81E12E068010E84F81F12E069401CBC
:103FB000E0626078012304F13001E26AFFF7C6FE97
:103FC00000206071607800221146FFF7EAFE00B120
:103FD0000125284670BD0246891E5069801E884210
:103FE00001D8002070479378906A01FB0300F9E73D
:103FF0002DE9F04105460C46022C02D36869A04227
:1040000002D80120BDE8F0812878012804D00228D8
:104010002CD003285AD13DE0274607EB5707286AE2
:1040200000EB57212846FFF759FF00B150E0C7F3D6
:10403000080105F1300010F801807F1C286A00EBB0
:1040400057212846FFF74AFF00B141E0C7F30801B6
:1040500005F13000405C48EA002804F0010010B18E
:104060004FEA1810CEE7C8F30B00CBE7286A00EB45
:1040700014212846FFF732FF00B129E040F2FF107B
:1040800000EA440105F130000E183078717840EAFA
:104090000120B7E7286A00EBD4112846FFF71EFF7E
:1040A00000B115E040F2FF1000EA840105F1300094
:1040B0000E18F0780006B17840EA0140717840EAC5
:1040C00001203178084320F070409BE7012099E7F8
:1040D00000BF4FF0FF3095E72DE9F04705460E464B
:1040E0001746022E02D36869B04202D84FF0020888
:1040F0008AE02878012804D0022841D003287DD105
:1041000054E0B14609EB5909286A00EB59212846C9
:10411000FFF7E4FE8046B8F1000F00D071E0C9F36C
:10412000080105F130000C1806F0010020B1F9B2C9
:10413000207861F31F1000E03846207009F1010972
:1041400001202871286A00EB59212846FFF7C6FE96
:104150008046B8F1000F00D053E0C9F3080105F123
:1041600030000C1806F0010010B1C7F3071005E08D
:10417000207800F0F000C7F303210843207040E0EE
:10418000286A00EB16212846FFF7A8FE8046B8F102
:10419000000F00D035E040F2FF1000EA460105F1C3
:1041A00030000C182770380A60702AE0286A00EB8B
:1041B000D6112846FFF792FE8046B8F1000F00D0D6
:1041C0001FE040F2FF1000EA860105F130000C18F4
:1041D000E0780006A17840EA0140617840EA0120D9
:1041E0002178084300F0704007432770380A607058
:1041F000380CA070380EE07003E0FFE74FF00208C3
:1042000000BF00BF012028714046BDE8F0872DE9BE
:10421000F04104460E46022E02D36069B04201D836
:10422000022727E0002721E031462046FFF7E0FE85
:10423000054605B91DE0012D01D1022719E0681CD2
:1042400008B9012715E0002231462046FFF744FF58
:10425000074607B10DE02069401C30B12069401CC1
:104260002061607940F0010060712E466069B042C3
:10427000DAD800BF3846BDE8F0812DE9F0470446A2
:104280008946B9F1000F06D1E76817B16069B842F5
:1042900015D8012713E049462046FFF7A9FE064638
:1042A000022E02D20120BDE8F087701C08B930460A
:1042B000F9E76069B04201D93046F4E74F463D4620
:1042C00000BF6D1C6069A84204D80225BD4201D917
:1042D0000020E8E729462046FFF78AFE064606B991
:1042E00009E0701C08B1012E01D13046DBE7BD4268
:1042F000E7D10020D7E700BF6FF070422946204683
:10430000FFF7EAFE8046B8F1000F08D1B9F1000FBF
:1043100005D02A4649462046FFF7DEFE8046B8F122
:10432000000F0BD1E5602069401C78B12069401E68
:104330002061607940F00100607107E0B8F1010F81
:1043400002D14FF0FF3000E0012005462846AAE7E1
:1043500070B503460D46586A021D680A1E68B67895
:10436000B0FBF6F400BF02CA09B9002070BD8C4250
:1043700000D202E0641A121DF5E700BF1068204465
:10438000F4E72DE9F04104460E46E680A568012DCC
:1043900003D020684069A84202D80220BDE8F0811D
:1043A0002DB920680078032801D12068456A45B9F5
:1043B00020680089B04201D80220EFE72068476AF0
:1043C0001EE0206880784FEA001812E02946206835
:1043D000FFF70EFE0546681C08B90120DEE7022D36
:1043E00003D320684069A84201D80220D6E7A6EB93
:1043F00008064645EAD229462068FFF7ECFD074645
:10440000E5600FB90220C9E707EB161020612068AC
:10441000303006F00F0100EB411060610020BDE775
:104420002DE9F04104468846E088461CB0B208B148
:10443000206910B90420BDE8F08106F00F000028C3
:104440006CD12069401C2061E06828B9206800898F
:10445000B04263D80420EEE720688078401E00EA6E
:10446000161000285AD1E1682068FFF7C1FD054603
:10447000012D01D80220DEE7681C08B90120DAE727
:1044800020684069A84243D8B8F1000F01D1042048
:10449000D1E7E1682068FFF7F0FE05460DB9072077
:1044A000C9E7012D01D10220C5E7681C08B9012028
:1044B000C1E72068FFF7ECFC08B10120BBE72168E9
:1044C00001F130004FF400720021FFF7BAFC2946D9
:1044D0002068FFF780FD2168C86200270EE00120F8
:1044E000216808712068FFF7D3FC08B10120A2E71A
:1044F0002068C06A401C2168C8627F1C20688078E0
:10450000B842ECD82068C06AC01B2168C86200BFEE
:10451000E56029462068FFF75EFD2061E68020689F
:10452000303006F00F0100EB41106061002082E79F
:104530002DE9F04104460E4600212046FFF721FFF9
:104540000546EDB9002700BF21692068FFF7C6FCCA
:10455000054605B113E060690078E52802D060697E
:10456000007820B9781C0746B04201D107E0002747
:1045700001212046FFF754FF0546002DE4D000BF7F
:10458000042D00D107252846BDE8F08110B502466C
:104590008C7ECB7E44EA03201378032B05D10C7D5F
:1045A0004B7D44EA032340EA034010BD81760B0AA9
:1045B000C3760A0C02750B0E437570472DE9F04760
:1045C00005460C46207820F04000401E00EB80019C
:1045D00001EBC00600274FF0010800BFF848C05D9E
:1045E000205CF749C95D2144497840EA0129B8F1C6
:1045F000000F10D0484602F09FFD8046FF2E07D2E4
:104600003146761C35F8110002F096FD404508D081
:104610000020BDE8F0874FF6FF70814501D00020F3
:10462000F7E7781C07460D28D8D3207800F0400023
:1046300038B1B8F1000F04D035F8160008B10020E9
:10464000E7E70120E5E7F0B50346087800F03F0012
:10465000401E00EB800707EBC0020025012600BFCB
:10466000D748405D085CD64F7F5D0F447F7840EAB5
:1046700007244EB1FF2A01D30020F0BD2646104684
:10468000521C23F8104005E04FF6FF70844201D021
:104690000020F2E7681C05460D28E1D3087800F0F9
:1046A000400030B1FF2A01D30020E6E7002023F8C4
:1046B00012000120E1E7F0B504461D464D730F27B7
:1046C000CF7200270F738F76BC4681F81BC0571E30
:1046D00007EB870C0CEBC706002738463B4600BFAC
:1046E0004FF6FF77B84203D03746761C34F81700F0
:1046F000DFF8CCC21CF803C001F80C000712DFF889
:10470000C0C21CF803C08C448CF8017008B94FF685
:10471000FF705F1C3B460D2FE2D34FF6FF77B84288
:1047200002D034F816700FB942F040020A70F0BDA2
:104730002DE9FC4707468A4690461E460B22514605
:104740003846FFF771FB052E18D9304610E038F8CF
:10475000021B00250AE00A4660F35F02104649107A
:1047600000F480320AB1974A50406D1C102DF2D3EC
:10477000B8F80020002AEAD1064600BF072500BF8E
:1047800006F00F0000F13009B9F1390F03DD09F12E
:10479000070000F0FF0928466D1E0DF8009036094D
:1047A000002EEDD17E200DF8050000240BE0385DD1
:1047B000812807DB385DFE2804DC681EA04200D19A
:1047C00006E0641C641CAC4202D2385D2028EED1A5
:1047D00000BF00BF082D04D228466D1C1DF8001034
:1047E00000E020212046641C3954082CF2D3BDE897
:1047F000FC8730B5014600200B2200BF431003EBBD
:10480000C01411F8015B6319D8B2531E1A1EF5D1FA
:1048100030BD2DE9F047044600212046FFF7B1FDE9
:10482000074617B13846BDE8F0874FF0FF09CA4682
:104830004FF6FF70208400BF21692068FFF74EFB10
:10484000074607B157E065692E780EB9042752E094
:10485000E87A00F03F08E52E05D008F0080040B1E6
:10486000B8F10F0F05D04FF0FF094FF6FF7020840D
:104870003AE0B8F10F0F1CD1E06978B306F04000C0
:1048800030B195F80DA026F04006B146E0882084AE
:104890004E450AD1687B504507D12946E069FFF7AC
:1048A0008DFE10B1A9F1010000E0FF2000F0FF092A
:1048B0001AE0B9F1000F05D12846FFF79AFF5045DD
:1048C00000D118E0A069C07A00F0010038B90B22CD
:1048D0002846A169FFF7BFFA08B90CE004E04FF0E1
:1048E000FF094FF6FF70208400212046FFF798FD56
:1048F0000746002FA0D000BF384694E72DE9F05FAF
:1049000004468A464FF0FF09CB4604274EE0216952
:104910002068FFF7E3FA074607B14AE06669357891
:104920000DB9042745E0F07A00F03F08E52D09D0E5
:104930002E2D07D0B8F1080F01D1012000E0002092
:10494000504502D04FF0FF0929E0B8F10F0F1AD1FE
:1049500005F0400030B196F80DB025F04005A946AD
:10496000E08820844D450AD1707B584507D13146F7
:10497000E069FFF768FE10B1A9F1010000E0FF2037
:1049800000F0FF090BE0B9F1000F04D13046FFF74A
:1049900030FF584502D04FF6FF70208409E0002117
:1049A0002046FFF73DFD074607B102E020690028D9
:1049B000ADD100BF0FB1002020613846BDE8F09FA7
:1049C00046940008211001002DE9FE4F0446D4F85A
:1049D0001880D4F81C900C2241466846FFF724FA50
:1049E00000BF9DF80B0000F0010020B3002088F804
:1049F0000B00E06101260CE033464A46694640461A
:104A0000FFF796FE2046FFF704FF054605B102E0DA
:104A1000761C642EF0D300BF642E02D10720BDE8BF
:104A2000FE8F042D01D02846F9E79DF80B0088F889
:104A30000B00C4F81C909DF80B0000F0020060B160
:104A4000002600E0761C39F816000028FAD106F19D
:104A500019000D21B0FBF1F700E00127394620468F
:104A6000FFF766FD054645BB781E071E25D0E0888A
:104A7000C11B2046FFF785FC0546F5B9A069FFF785
:104A8000B8FE824600BF21692068FFF727FA054675
:104A900005B111E0FAB253466169E069FFF70BFE18
:104AA00001202168087100212046FFF7B9FC054666
:104AB00015B9781E071EE6D100BFC5B92169206867
:104AC000FFF70CFA054695B9202200216069FFF72F
:104AD000B8F90B22D4E90501FFF7A6F9A069C07A5D
:104AE00000F01800616908730120216808712846E8
:104AF00095E770B50446E688208C4FF6FF72904229
:104B000001D1304600E0208C01462046FFF739FCF9
:104B100005460DBB00BF21692068FFF7DFF9054698
:104B200005B115E0202200216069FFF78AF9E52030
:104B300061690870012021680871E088B04200D3E3
:104B400006E000212046FFF76BFC0546002DE2D071
:104B500000BF042D00D10225284670BD2DE9F04785
:104B600007460C4604F109063869002843D07869E5
:104B7000002526E029466D1C10F80180B8F1200FB1
:104B800000D11EE0B8F1050F01D14FF0E508092D65
:104B900002D12E2106F8011BB8F1410F0EDBB8F14E
:104BA0005A0F0BDC017B092D01D3102200E00822F3
:104BB000114019B108F1200101F0FF0806F8018B3E
:104BC00000BF0B2DD6D3C17A2172C17F0A06817F27
:104BD00042EA0142417F42EA0121027F1143216002
:104BE000027E417E42EA0121A180827DC17D42EAAE
:104BF0000121E18000BF00203070A06990B3002542
:104C0000A669386958B3E06948B3388C4FF6FF712C
:104C1000884224D0D7F81CA01BE00021484602F0AF
:104C200051FA8146B9F1000F01D1002516E0B9F122
:104C3000FF0F04DD4FEA292228466D1C3254E0693B
:104C4000401EA84201D8002508E028466D1C06F841
:104C500000903AF8021BB1F10009DED100BF00203C
:104C6000705500BFBDE8F0872DE9F34F83B0814652
:104C700004980068019002E00198401C019001989E
:104C800000782F28F8D0019800785C28F4D0D9F863
:104C90001CA000252F4600BF38467F1C01990C5CE4
:104CA000202C03DB2F2C01D05C2C00D132E0FF2D17
:104CB00003D3062005B0BDE8F08FE4B2812C13DBEE
:104CC000E0B2FE2810DC38467F1C01990E5C402EB5
:104CD00001DB7E2E05DD802E01DBFE2E01DD0620B0
:104CE000E8E706EB042084B20121204602F0EAF94D
:104CF00004460CB90620DDE7802C06DA2146F9A02F
:104D0000FFF7BCF808B10620D4E728466D1C2AF846
:104D10001040C1E700BF0198C11904980160202C20
:104D200001DA042000E00020804608E0681E3AF81E
:104D30001040202C02D02E2C00D002E06D1E002D41
:104D4000F4D100BF0DB90620B4E700202AF8150001
:104D50000B222021D9F81800FFF773F8002700E094
:104D60007F1C3AF817002028FAD03AF817002E28AE
:104D7000F6D00FB148F0030800E06D1E25B1681EA3
:104D80003AF810002E28F8D10020064602904FF085
:104D9000080B00BF38467F1C3AF8104004B963E0A6
:104DA000202C03D02E2C04D1AF4202D048F00308AF
:104DB000F0E70298584501D2AF4214D1BBF10B0F76
:104DC00002D148F003084FE0AF4201D048F0030899
:104DD000AF4200D948E02F46082002904FF00B0B5D
:104DE000B006060ED6E7802C09DB204602F0A4F9B7
:104DF0000021009002F066F9044648F00208FF2CFA
:104E000011DDABF101000299884204D848F0030893
:104E1000CDF808B0BEE72212D9F818300298411C2C
:104E200002911A5419E024B12146B1A0FFF726F8E7
:104E300018B15F2448F003080FE0412C04DB5A2C22
:104E400002DC46F0020608E0612C06DB7A2C04DC6A
:104E500046F00106A4F1200084B2D9F81830029877
:104E6000411C02911C5495E700BFD9F81800007846
:104E7000E52803D10520D9F818100870BBF1080FF8
:104E800001D1B006060E06F00C000C2803D006F087
:104E90000300032801D148F0020808F0020058B9C5
:104EA00006F00300012801D148F0100806F00C00BC
:104EB000042801D148F00808D9F8180080F80B80C0
:104EC0000020F7E62DE9F3410446019800782F28E9
:104ED00003D0019800785C2802D10198401C019011
:104EE0000020A06001980078202807D200212046E9
:104EF000FFF747FA05460020606128E000BF01A9DE
:104F00002046FFF7B1FE054605B11FE02046FFF73A
:104F100080FC0546A069C67A3DB1042D04D100BFCE
:104F200006F0040000B9052510E006F0040000B109
:104F30000CE06769F87A00F0100008B9052505E073
:104F400039462068FFF722FBA060D8E700BF28465B
:104F5000BDE8FC8170B502464FF0FF301568E5B141
:104F6000116800E0491C0D78202D02D30D783A2DF0
:104F7000F8D10D783A2D0FD1146814F8015BA5F122
:104F800030030A2B07D28C4205D1032B03D21846DB
:104F90004D1C2946156070BD002000BFFBE770B5B1
:104FA00004460D4600202071401EE062294620463E
:104FB000FEF794FF08B1032070BD94F82E1294F808
:104FC0002F0241EA00204AF65521884201D00220F2
:104FD000F2E794F86900010694F8680041EA00419C
:104FE00094F8670041EA002094F86610084320F026
:104FF0007F404149884201D10020DDE794F88500D7
:10500000010694F8840041EA004194F8830041EAE3
:10501000002094F88210084320F07F4036498842EF
:1050200001D10020C8E70120C6E72DE9F74F88B07D
:105030000021089801600998FFF78CFF07900798F6
:10504000002803DA0B200BB0BDE8F08F2B4907983E
:1050500051F820400CB90C20F5E70898046020783E
:1050600078B16078FEF744FE804608F0010040B950
:105070000A9820B108F0040008B10A20E3E70020F4
:10508000E1E700202070079860706078FEF720FE4E
:10509000804608F0010008B10320D4E70A9820B147
:1050A00008F0040008B10A20CDE700273946204661
:1050B000FFF775FF0546012D01D09DBB3BE00026A3
:1050C00022E004F5F77101EB06100179C1B1C17A54
:1050D0000A06817A42EA0142417A42EA0121027AD1
:1050E00011430EE0222A3A3C3E3F7C7F0000000044
:1050F0002B2C3B3D5B5D000046415400FC2400200E
:1051000000214DF82610761C042EDAD3002606B1B5
:10511000761E00BF5DF826702FB139462046FFF796
:105120003EFF01E007E0022005461DB1701C064667
:105130000428EFD300BF032D01D1012083E70DB177
:105140000D2080E73B20015D94F83C0041EA0020FF
:10515000B0F5007F01D00D2075E74620015D94F881
:10516000470041EA0029B9F1000F0ED194F8570029
:10517000010694F8560041EA004194F8550041EACE
:10518000002094F8541040EA0109C4F81890402017
:10519000005DE070E078012804D0E078022801D0BA
:1051A0000D2050E7E07809FB00F93D20005DA0707C
:1051B000A07818B1A078411E084008B10D2042E740
:1051C0004120015D94F8420041EA00202081207ACC
:1051D00000F00F0008B10D2035E74320015D94F881
:1051E000440041EA002BBBF1000F0ED194F85300AC
:1051F000010694F8520041EA004194F8510041EA56
:10520000002094F8501040EA010B3E20015D94F814
:105210003F0041EA00200490049808B90D2012E7ED
:1052200004984844218900EB1110069006988345A4
:1052300001D20D2007E70698ABEB0000A178B0FB88
:10524000F1FABAF1000F01D10D20FCE6012540F67C
:10525000F670824500D302254FF6F670824500D3E2
:1052600003250AF102006061E76104983844206276
:1052700006983844A062032D16D1208908B10D206C
:10528000E1E694F85F00010694F85E0041EA00410F
:1052900094F85D0041EA002094F85C1008436062D5
:1052A00060698000059014E0208908B90D20CAE6E5
:1052B000206A48446062022D02D16069400007E024
:1052C000207D00F00100616901EB410100EB51001C
:1052D0000590A169059800F2FF10B1EB502F01D2A3
:1052E0000D20B0E64FF0FF302061E060802060715B
:1052F000032D5AD194F8601094F8610041EA00201F
:10530000012852D1791C2046FEF7E8FDE8BB0020B9
:10531000607194F82E1294F82F0241EA00204AF6A8
:105320005521884241D13320005D01063220005DC5
:1053300041EA00413120005D41EA002094F830103C
:105340000843FC49884230D194F81702010694F8CA
:10535000160241EA004194F8150241EA002094F84F
:1053600014120843F44988421FD194F81B02010625
:1053700094F81A0241EA004194F8190241EA002027
:1053800094F818120843206100E00EE094F81F0220
:10539000010694F81E0241EA004194F81D0241EA18
:1053A000002094F81C120843E0602570E348008850
:1053B000401C80B2E1490880E080002043E670B5DF
:1053C00005462C464CB1206838B12068007820B1E1
:1053D0002068C088A188884201D0092070BD21685A
:1053E0004878FEF785FC00F0010008B10320F5E7DE
:1053F0000020F3E7F7B582B016460398019001A8A4
:10540000FFF7A8FD0546002D02DA0B2005B0F0BD20
:10541000CB4850F825400CB100202070029810B104
:10542000002002990870C649029841F825000298A8
:1054300008B1012E01D00020E8E7002203A902A84C
:10544000FFF7F3FD07463846E0E72DE9F7478DB053
:10545000054616461DB9092010B0BDE8F0870020AA
:10546000286006F01F0626F001020EA904A8FFF727
:10547000DCFD0746002F73D14FF40070FEF7C6FC29
:105480008146B9F1000F01D11120E5E7CDF82C904C
:1054900001A80A9004A80E99FFF714FD0746099C7D
:1054A0000FB904B9062706F01C00002851D04FB1EF
:1054B000042F03D104A8FFF787FA074646F0080631
:1054C000099C09E0E07A00F0110008B1072703E029
:1054D00006F0040000B10827002F39D106F00800BB
:1054E000002835D0FEF790FC804684F80E804FEA05
:1054F0001821E1734FEA184121744FEA1861617471
:105500000020E072207700216177A177E1772146C2
:105510000498FFF73BF8824600212046FFF746F843
:10552000012004990871BAF1000F11D00498D0F845
:105530002C8051460498FEF76AFE074647B9AAF147
:1055400001000499C86041460498FEF7C7FC07466D
:105550000FE077B9E07A00F0100010B1042708E0FE
:1055600031E006F0020020B1E07A00F0010000B165
:10557000072747B906F0080008B146F0200604984E
:10558000C06AE8612C624846FEF746FCDFB9AE719E
:105590000020E87121460498FEF7F8FF2861E07FBB
:1055A0000106A07F41EA0041607F41EA0020217F9F
:1055B0000843E8600020A860A86168620498286039
:1055C0002868C088A880384646E72DE9FF4F83B099
:1055D000044615469A46DDF810B00020CAF80000CF
:1055E0002046FFF7ECFE0290029818B1029807B02F
:1055F000BDE8F08FE07908B1E079F8E7A07900F034
:10560000010008B90720F2E7D4E90210401A00901F
:105610000098854200D9009DB2E02089C0F30800BF
:10562000002876D120688078401EA16800EA5120C9
:1056300000F0FF09B9F1000F1FD1A06810B920696F
:1056400001900CE0606A28B12046A168FEF780FE58
:10565000019004E061692068FEF7CAFC019001989E
:10566000022802D20220E071C1E70198401C10B963
:105670000120E071BBE70198606161692068FEF775
:10568000AAFC064616B90220E071B0E74E444FEA84
:105690005528B8F1000F29D009EB08002168897856
:1056A000884203D920688078A0EB090821684878EF
:1056B000434632465946FEF71EFB10B10120E07109
:1056C00095E7A07900F0400068B1A069801B4045D3
:1056D00009D2A169891B0BEB41204FF4007204F140
:1056E0002801FEF7A1FB4FEA48273FE0A069B0423E
:1056F00028D0A07900F0400080B1216848780123CB
:1057000004F12801A269FEF721FB18B10120E07124
:105710006DE718E0A07920F04000A071216848787A
:105720000123324604F12801FEF7E5FA50B10120C9
:10573000E0715CE75252614172724161B80500202C
:10574000FC240020A6612089C0F30800C0F5007782
:10575000AF4200D92F462089C0F3080204F1280087
:1057600011183A465846FEF75FFB00BFBB44A068DD
:105770003844A060DAF800003844CAF80000ED1B95
:10578000002D7FF44AAF002031E72DE9FF4F83B0B1
:10579000044615469B46049801900020CBF8000073
:1057A0002046FFF70CFE0290029818B1029807B04D
:1057B000BDE8F08FE07908B1E079F8E7A07900F072
:1057C000020008B90720F2E7A0682844A1688842CF
:1057D00000D20025BEE02089C0F3080000287DD15A
:1057E00020688078401EA16800EA512000F0FF0A7E
:1057F000BAF1000F26D1A06838B9276997B90021FE
:105800002068FEF73AFD07460CE0606A28B12046A2
:10581000A168FEF79DFD074604E061692068FEF778
:105820002CFD074607B998E0012F02D10220E07154
:10583000BDE7781C10B90120E071B8E76761206905
:1058400000B92761A07900F0400078B1216848785C
:10585000012304F12801A269FEF778FA10B10120B2
:10586000E071A4E7A07920F04000A0716169206890
:10587000FEF7B1FB064616B90220E07197E75644E1
:105880004FEA5529B9F1000F2CD00AEB0900216825
:105890008978884203D920688078A0EB0A092168BA
:1058A00048784B4632460199FEF750FA10B1012074
:1058B000E0717CE7A069801B48450ED2A069801B7F
:1058C000019A02EB40214FF4007204F12800FEF728
:1058D000ABFAA07920F04000A07100E016E04FEA9A
:1058E00049282AE0A069B0420FD0D4E902018842D9
:1058F0000BD2216848780123324604F12801FEF7D3
:10590000FAF910B10120E07151E7A6612089C0F3D6
:105910000800C0F50078A84500D9A8462189C1F340
:10592000080204F12801501842460199FEF77CFA5A
:10593000A07940F04000A07100BF01984044019060
:10594000A0684044A060DBF800004044CBF80000B1
:10595000A5EB0805002D7FF43EAF00BFD4E902019E
:10596000884201D9A068E060A07940F02000A071D1
:1059700000201CE72DE9F04104462046FFF71FFDFB
:105980000746002F4CD1A07900F02000002847D016
:10599000A07900F0400078B121684878012304F133
:1059A0002801A269FEF7D2F910B10120BDE8F0810B
:1059B000A07920F04000A071E1692068FEF78EFA1E
:1059C0000746002F2CD1256AE87A40F02000E872C3
:1059D000207B2877A089010A6977E068010CA97704
:1059E000E068010EE97728462169FEF7DFFDFEF742
:1059F0000BFA0646AE75310AE975310C2976310E7F
:105A000069760020A8740021E974A07920F02000B4
:105A1000A0710120216808712068FEF778FA074616
:105A20003846C3E770B505462846FFF7A3FF04468E
:105A300044B92846FFF7C3FC04460CB9002028608F
:105A4000204670BD2046FCE72DE9FE4F04460D467A
:105A50002046FFF7B4FC0290029810B10298BDE80E
:105A6000FE8FE07908B1E079F9E7606A002871D02B
:105A7000681C00283BD1D4F8248058F804AB4FF0C0
:105A8000020926693EB300BF00964FF0000B09F1F2
:105A9000020900BF01960BF1010B31462068FEF7A9
:105AA000A7FA0646012E02D80220E071D7E7701C43
:105AB00010B90120E071D2E70198401C8642E9D07C
:105AC000D14504D848F804BB009848F8040B206876
:105AD0004069B042D8D8606AC0F80090D14503D878
